S0570000433A5C4D616573747269615C53697374656D61734F706572617469766F735C5072616374696361735C7472756E6B5C5461726561335F4F535461736B5F4D616E616765725C62696E5C50726F6A6563742E616273EC
S123C000CF2100C6055B134A801FFE4A8000FE0002C015C2500FE10000620F0000000100F9
S123C0200000000000000000000000000000000000000000000000000000000000000000FC
S123C0400000000000000000000000000000000000000000000000000000000000000000DC
S123C0600000008337FE0100010001C06000000005000100000000000083F4FE0001000461
S123C08000070001000000008407FE00020002000F000300000000841AFE00030003001F34
S123C0A0000500000000842DFE00040000003F0007000000008440FE00050000007F000B2D
S123C0C0000000008453FE0006C06D35B7C513B7D43113B7E41AE6B7E43D186982EC8C26AD
S123C0E01DEE8EED86EC8811280CEC8618C7116D82B746EC88116D846C881869863D9727BD
S123C10009EE86B7C5CD00002008EE8DE686ED87B7C61135ECF010133B35ECF012ED84132E
S123C120E3B130B7C5CD0000356581A38CB7C518A38A310446113669AF3137323433EEF02A
S123C1401011B76532201F252A046403044539E78E2706EE8E87C7200BB7C5363469AFEE6E
S123C160F013313A1810083A34A3B1B74620A4310220A04151B7C5415104A40108AE8E22F8
S123C180EE2505ACF01024E7316D841869826C886E863D3B341B9C16C0DA30ECB5EDB50534
S123C1A0403037E1310460022504E61F2002E6E51AE53305001817260334ADB13D0B1F03B6
S123C1C045011AFEC06B1903EC412604E603270DFC2100042407FDC06B4BEB00031C034531
S123C1E0010B1F0345021AFEC06B1909EC412604E609270DFC2102042407FDC06B4BEB003B
S123C200091C0345020B1F0345041AFEC06B190FEC412604E60F270DFC2104042407FDC03D
S123C2206B4BEB000F1C0345040B1F0345081CFEC06B19E015EC412605E6E015270DFC2191
S115C24006042407FDC06B4BEB00151C0345080B0000C9
S123FF10C1BDC1BDC1BDC1BDC1BDC1BDC1BDC1BDC1BDC1BDC1BDC1BDC1BDC1BDC1BDC1BDED
S123FF30C1BDC1BDC1BDC1BDC1BDC1BDC1BDC1BDC1BDC1BDC1BDC1BDC1BDC1BDC1BDC1BDCD
S123FF50C1BDC1BDC1BDC1BDC1BDC1BDC1BDC1BDC1BDC1BDC1BDC1BDC1BDC1BDC1BDC1BDAD
S123FF70C1BDC1BDC22AC206C1E2C1BEC1BDC1BDC1BDC1BDC1BDC1BDC1BDC1BDC1BDC1BDAF
S123FF90C1BDC1BDC1BDC1BDC1BDC1BDC1BDC1BDC1BDC1BDC1BDC1BDC1BDC1BDC1BDC1BD6D
S123FFB0C1BDC1BDC1BDC1BDC1BDC1BDC1BDC1BDC1BDC1BDC1BDC1BDC1BDC1BDC1BDC1BD4D
S123FFD0C1BDC1BDC1BDC1BDC1BDC1BDC1BDC1BDC1BDC1BDC1BDC1BDC1BDC1BDC1BDC1BD2D
S113FFF0C1BDC1BDC1BDC1BDC1BDC000C1BDC00089
S224FE80001410C6FF7B01214A805BFEC60F5B025B0310EFCCC0C74A8283FE4A829AFE0AFE19
S224FE8020C011FDC00F271835E630ED315B1034EE0087186A700435FA301A02310326E8FE33
S224FE8040C013EC3127143BE630ED315B103A36A630186A70320434F620E80A4A8060FE0A3C
S224FE80604D3A401879210CD634C4C0CA0B5B344D353FD635C43FCA405B354D361F4C34C03B
S224FE80804C3A804C3A014C37024C38024C3A401879210E4F3708FC4C37104C38104C398009
S224FE80A0C602877C210CD634C43FC30001595959B746CC4240CE000F16C0CB3BD635C43FD7
S224FE80C087C3000159B74E3B35EC8416C1937C21127E21103A0A6CADB7450E0401061D03BA
S224FE80E0402020041C034020B7450E0201061D03408020041C0340806982207F168188E6F5
S224FE810000C10322748716C1A1046E041C344C07770E0201061D03430120041C034301076A
S224FE812067EE01264F2046075F0E0201061D03430220041C034302074FEE012637202E07AA
S224FE8140470E0201061D03430420041C0343040737EE01261F2016072F0E0201061D034375
S224FE81600820041C034308071FEE01260707257B03462005071E7B03476282EE80E682E18A
S224FE8180001825FF771B830AC606A68412EE82E305B7453DCC42403BCE000F34FC2112FE21
S224FE81A0211016C193533D3BE685C103225A8716C1A104A3042D567F1C034501FEC06BEC85
S224FE81C00126061C03400120041C034002EE80097E03481C0341011C0342011C0344012003
S224FE81E0761C034502FEC06BEC0726061C03400120041C034002EE80097E034C1C034102CD
S224FE82001C0342021C034402204D1C034504FEC06BEC0D26061C03400120041C034002EE9D
S224FE822080097E03501C0341041C0342041C03440420241C034508FEC06BECE01326061CB1
S224FE824003400120041C034002EE80097E03541C0342081C0344083A0AC10322258716C185
S224FE8260A1041F040B1219C601877C21000AC601877C21020AC601877C21040AC601877C4E
S224FE828021060ACCC0664A80D6FE4A854BFE792108C6017B210A7921090AC76BABCC01F4A8
S224FE82A04A81A7FE32C74A8259FE1869821887C60A87ED8213B756185819EECCFFFF6CEA10
S224FE82C02114088E000525E7186282EE828E000625DBC654874A859AFE7E21517B215018C3
S224FE82E06980C60F87ED80133BF3C0C9B745C60E87ED8213F32151B746EC00B745F6215075
S224FE83005B10186E403018BBC0C9EC02186C42C787186C44186C46186C48186C4A186C4C9F
S224FE8320186280EE808E000625B84A8375FEC6555B3F585B3F20F336F62108262DC6017B7D
S224FE834021086980201CC60FA68012F3C0C9B745F62109E40587AC062606EC004A8466FEBB
S224FE83606280E68087BCC0C72DDC722109D601C8045B01320AF6210A2712F62108270D4C0F
S224FE838001084A838DFE7921084D01080A1B9A0759C76C84186380C60A87ED8013B745EDF0
S224FE83A0E221148DFFFF27297D2154C60E8713F32151B746F62150CE00025B10186E44FC9E
S224FE83C02154190D13F3C0C9B7464BEB000C186982EC802704EC8226BBEC802604EC82261E
S224FE83E0060707EE8427AD1B860AC606876C82C6016C843D4C00011887088E01F425FA4D5D
S224FE840000014A84D9FE0A4C00021887088E025825FA4D00024A84D9FE0A4C0004188708B8
S224FE84208E006425FA4D00044A84D9FE0A4C00081887088E012C25FA4D00084A84D9FE0A4F
S224FE84404C01011887088E03E825FA4D01014A84D9FE0A4C01021887088E02BC25FA4D01DF
S224FE8460024A84D9FE0A6CA93BC7876C876B866C842004E6862635C60F87ED8213F3C0C991
S224FE8480B745ED02C60A8713B746EC845919EE6C80ECEA211404A414ED02C60A8713E38048
S224FE84A0B745ED826DE22114C6016B86186284EC848C000525BDC60E87ED8213F32151B738
S224FE84C046F62150CE00015B10186E44E68626041A036E87EC871B890A1B9CC7876C826CC0
S224FE84E080FC2154CD000E13F32151B74587F621505B10C7186C042021073E3513B745ECDB
S224FE850082591AE6CD000A3BEC8213E380B746ECE221166CEA21141862A3EC808C000525BB
S224FE8520D8071613EE8018481AE6CCFFFF6CE221127C2154EC821B840AFC2154CD000F13AF
S224FE8540F3C0C9B745ED02C60A873D3BCE0000C60F7E21577B2156CD3FFF7D216018BB215A
S224FE8560607E215A7B21590724186980C7FE215DB6215C5A10186B001872215D186280FC1D
S224FE85802160AC8022E679215F07023A0AFC21577C215DF621567B215C3D6CAB0F81010322
S224FE85A0186280FE215A18B0215D08AE802408C7876C836B822011FC215D6C83F6215C6BFB
S224FE85C082EC83E3807C215DFE215AF62159FD215DB6215C16C1B52402878F86017A215F6A
S20BFE85E0EE83E6821B850A0E
S9030000FC
