S05B0000433A5C4D616573747269615C53697374656D61734F706572617469766F735C3031202D2050726163746963615C7472756E6B5C5461726561335F4F535461736B5F4D616E616765725C62696E5C50726F6A6563742E6162738D
S123C000CF2100C6055B134A802BFE4A8000FE0001C015C2480FE100005100000000000017
S123C0200000000000000000000000000000000000000000000000000000000000000000FC
S123C0400000000000000000000000000000000000000000000000000000000000000000DC
S123C0600000008328FE0100010001C060000000000001000000000000837EFE00010001EE
S123C08000070001000000008391FE00020002000F00030000000083A4FE00030003001F22
S123C0A000050000000083B7FE00040004003F00070000000083CAFE00050005007F000B12
S123C0C00000000083DDFE0006C06D35B7C513B7D43113B7E41AE6B7E43D186982EC8C2624
S123C0E01DEE8EED86EC8811280CEC8618C7116D82B746EC88116D846C881869863D9727BD
S123C10009EE86B7C5CD00002008EE8DE686ED87B7C61135ECF010133B35ECF012ED84132E
S123C120E3B130B7C5CD0000356581A38CB7C518A38A310446113669AF3137323433EEF02A
S123C1401011B76532201F252A046403044539E78E2706EE8E87C7200BB7C5363469AFEE6E
S123C160F013313A1810083A34A3B1B74620A4310220A04151B7C5415104A40108AE8E22F8
S123C180EE2505ACF01024E7316D841869826C886E863D3B341B9C16C0DA30ECB5EDB50534
S123C1A0403037E1310460022504E61F2002E6E51AE53305000B1F0345011AFEC06B190338
S123C1C0EC412604E603270DFC2100042407FDC06B4BEB00031C0345010B1F0345021AFE49
S123C1E0C06B1909EC412604E609270DFC2102042407FDC06B4BEB00091C0345020B1F032C
S123C20045041AFEC06B190FEC412604E60F270DFC2104042407FDC06B4BEB000F1C0345C5
S123C220040B1F0345081CFEC06B19E015EC412605E6E015270DFC2106042407FDC06B4BFD
S10DC240EB00151C0345080B000079
S123FF10C1B5C1B5C1B5C1B5C1B5C1B5C1B5C1B5C1B5C1B5C1B5C1B5C1B5C1B5C1B5C1B56D
S123FF30C1B5C1B5C1B5C1B5C1B5C1B5C1B5C1B5C1B5C1B5C1B5C1B5C1B5C1B5C1B5C1B54D
S123FF50C1B5C1B5C1B5C1B5C1B5C1B5C1B5C1B5C1B5C1B5C1B5C1B5C1B5C1B5C1B5C1B52D
S123FF70C1B5C1B5C222C1FEC1DAC1B6C1B5C1B5C1B5C1B5C1B5C1B5C1B5C1B5C1B5C1B530
S123FF90C1B5C1B5C1B5C1B5C1B5C1B5C1B5C1B5C1B5C1B5C1B5C1B5C1B5C1B5C1B5C1B5ED
S123FFB0C1B5C1B5C1B5C1B5C1B5C1B5C1B5C1B5C1B5C1B5C1B5C1B5C1B5C1B5C1B5C1B5CD
S123FFD0C1B5C1B5C1B5C1B5C1B5C1B5C1B5C1B5C1B5C1B5C1B5C1B5C1B5C1B5C1B5C1B5AD
S113FFF0C1B5C1B5C1B5C1B5C1B5C000C1B5C000B9
S224FE80001410C6FF7B01214A8067FEC60F5B025B0310EFCCC0C74A828FFE4A82A2FE4A8334
S224FE802066FEC6555B3F585B3F20F3FEC011FDC00F271835E630ED315B1034EE0087186A46
S224FE8040700435FA301A02310326E8FEC013EC3127143BE630ED315B103A36A630186A70B1
S224FE8060320434F620E80A4A806CFE0A4D3A401879210CD634C4C0CA0B5B344D353FD6350A
S224FE8080C43FCA405B354D361F4C34C04C3A804C3A014C37024C38024C3A401879210E4FF1
S224FE80A03708FC4C37104C38104C3980C602877C210CD634C43FC30001595959B746CC4277
S224FE80C040CE000F16C0CB3BD635C43F87C3000159B74E3B35EC8416C1937C21127E211045
S224FE80E03A0A6CADB7450E0401061D03402020041C034020B7450E0201061D0340802004D1
S224FE81001C0340806982207F168194E600C10322748716C1A1046E041C344C07770E0201E8
S224FE8120061D03430120041C0343010767EE01264F2046075F0E0201061D03430220041CF1
S224FE8140034302074FEE012637202E07470E0201061D03430420041C0343040737EE01263B
S224FE81601F2016072F0E0201061D03430820041C034308071FEE01260707257B034620050A
S224FE8180071E7B03476282EE80E682E1001825FF771B830AC606A68412EE82E305B7453D63
S224FE81A0CC42403BCE000F34FC2112FE211016C193533D3BE685C103225A8716C1A104A33E
S224FE81C0042D567F1C034501FEC06BEC0126061C03400120041C034002EE80097E03481CAE
S224FE81E00341011C0342011C03440120761C034502FEC06BEC0726061C03400120041C038A
S224FE82004002EE80097E034C1C0341021C0342021C034402204D1C034504FEC06BEC0D268E
S224FE8220061C03400120041C034002EE80097E03501C0341041C0342041C03440420241C78
S224FE8240034508FEC06BECE01326061C03400120041C034002EE80097E03541C0342081CE1
S224FE82600344083A0AC10322258716C1A1041F040B1219C601877C21000AC601877C21021F
S224FE82800AC601877C21040AC601877C21060ACCC0664A80E2FE792108C6017B210A792198
S224FE82A0090AC76BABCC01F44A81B3FE32C74A8265FE1869821887C60A87ED8213B75618C6
S224FE82C05819EECCFFFF6CEA2114088E000525E7186282EE828E000525DBC60C874A851207
S224FE82E0FE7C2146186980C60F87ED80133BF3C0C9B745C60E87ED8213F32146B746EC00EA
S224FE83006C403AF3C0C9B745EC026C4218694418694618694818694A18694C186280EC800D
S224FE83208C000625C21B840A36722109F62108262DC6017B21086980201CC60FA68012F344
S224FE8340C0C9B745F62109E40587AC062606EC004A83F0FE6280E68087BCC0C72DDCD6018E
S224FE8360C8045B01320AF6210A2712F62108270D4C01084A84C7FE7921084D01080A4C00B3
S224FE8380011887088E01F425FA4D00014A845EFE0A4C00021887088E025825FA4D00024A79
S224FE83A0845EFE0A4C00041887088E006425FA4D00044A845EFE0A4C00081887088E012C8D
S224FE83C025FA4D00084A845EFE0A4C01011887088E03E825FA4D01014A845EFE0A4C010293
S224FE83E01887088E02BC25FA4D01024A845EFE0A6CA93BC7876C876B866C842004E68626BC
S224FE840035C60F87ED8213F3C0C9B745ED02C60A8713B746EC845919EE6C80ECEA211404AD
S224FE8420A414ED02C60A8713E380B745ED826DE22114C6016B86186284EC848C000525BD3D
S224FE8440C60E87ED8213F32146CE0001B7466E40E6860421041A036E87EC871B890A1B9CE9
S224FE8460186982FC2148CD000E13F32146B7451869002021073F3513B745EC82591AE6CD6D
S224FE8480000A3BEC8213E380B746ECEA21146CE221121862A3EC808C000522D807171318CA
S224FE84A06280B745EC80591AE6CCFFFF6CE22114EC821B840AFC2148CD000F13F3C0C9B72B
S224FE84C045ED02C60A873DC605876CACC6016C82186380C60A87ED8013B745EDE221148D53
S224FE84E0FFFF27237D2148C60E8713F32146CE0002B7466E40FC2148190D13F3C0C9B746F1
S224FE85004BEB000C186982EC8026C5EC8226C11B840A6CAC0F810103186280FE214C18B0E5
S224FE8520214E08AE802405186982200AFC214E6C82E3807C214EFC214CBC214E2302C78F87
S20EFE8540C6017B2150EC821B840A64
S9030000FC
